:020000040800F2
:10000000485E002045010008311200085D08000824
:100010002D12000821060008CD260008000000006F
:10002000000000000000000000000000451A000869
:100030002506000800000000B1120008591B000846
:100040005F0100085F0100085F01000895150008C6
:100050005F0100085F0100085F0100085F01000800
:100060005F0100085F0100085F0100085F010008F0
:100070005F0100085F0100085F0100085F010008E0
:100080005F0100085F0100085F0100085F010008D0
:100090005F0100085F0100085F0100085F010008C0
:1000A0005F0100085F0100085F0100085F010008B0
:1000B0005F01000819200008992000085F0100086E
:1000C0005F0100085F0100085F0100085F01000890
:1000D0005F0100085F0100085F0100085F01000880
:1000E0005F0100085F0100085F0100085F01000870
:1000F0005F0100085F0100085F0100085F01000860
:100100005F0100085F0100085F0100085F0100084F
:100110005F0100085F0100085F0100085F0100083F
:100120005F0100085F0100085F0100085F0100082F
:10013000DFF80CD000F094F900480047692B000864
:10014000485E00200648804706480047FEE7FEE775
:10015000FEE7FEE7FEE7FEE7FEE7FEE7FEE7FEE777
:10016000991B0008310100080649074A08685043F6
:1001700043F23902104408604008704701490860A2
:1001800070470000345900206D4EC641D2B201E0E4
:1001900000F8012B491EFBD270470022F6E710B58C
:1001A00013460A4604461946FFF7F0FF204610BDE5
:1001B000421C10F8011B0029FBD1801A7047F0B4D3
:1001C00080EA0102D40F4200B2EB410F02D2024694
:1001D000084611464A0042D0C30DDDB2C1F3C752F2
:1001E000AD1A202D35DAC1F3160141F4000204B135
:1001F0005242C5F1200602FA06F12A411044B3EB3F
:10020000D05F23D0C4B1012DA0EBC35009DCF0BCFA
:100210004FF0004202EAC352DBB200F5000000F0EA
:10022000F0B8400000F1807000EBC350A0F1807086
:1002300040EAD170490009E0490841EAC071A0EBE9
:10024000C35000F50000400800EBC350F0BC00F0C4
:10025000CFB86142012202EB4101001BF6E7F0BC7E
:10026000704781F00041AAE780F00040A7E780EAEC
:10027000010210B502F00043400022D04A001FD016
:10028000010E01EB1261C0F35600C2F3560240F4B6
:10029000000042F40002A0FB022000047F39140495
:1002A00000D0401C50EA124001D44000491EC2B2A6
:1002B0000C0604EBD010401C4008802A02D003E05A
:1002C000002010BD20F00100002900DA00201843B2
:1002D00010BD30B480EA010202F0004530F0004267
:1002E00021F0004013D090B1C30DD40DC2F316011C
:1002F000C0F31600E41A41F4000140F400027D341A
:10030000914201D3641C00E04900002C02DA30BCA9
:10031000002070474FF400000023914201D3891A56
:10032000034340084FEA4101F7D151B1914202D154
:100330004FF0004105E002D24FF0010101E06FF003
:10034000010103EBC450284430BC00F051B8C10F88
:1003500080EAE0700844CA079623002100F051B8F3
:1003600096230022114600F04CB800F0004220F025
:100370000040C10DC0F3160040F400007F2901DAEF
:1003800000207047962903DCC1F19601C84001E0C6
:1003900096398840002AF4D04042704720F000404F
:1003A000C10DC0F3160040F400007F2901DA0020DF
:1003B0007047962903DCC1F19601C8407047963911
:1003C0008840704730B50B460146002020220124AA
:1003D00009E021FA02F59D4205D303FA02F5491B13
:1003E00004FA02F52844151EA2F10102F1DC30BD29
:1003F0000029A8BF7047401C490008BF20F0010039
:10040000704710B4B0FA80FC00FA0CF050EA010416
:1004100004BF10BC704749B1CCF1200421FA04F4A8
:1004200011FA0CF118BF012121430843A3EB0C0181
:10043000CB1D4FEA00614FEA102042BF002010BCE4
:10044000704700EBC35010440029A4BF10BC704794
:10045000401C490008BF20F0010010BC704700009C
:10046000064C074D06E0E06840F0010394E8070001
:1004700098471034AC42F6D3FFF75EFE44AF000855
:1004800064AF000870B58D1810F8014B14F003022A
:1004900001D110F8012B231106D110F8013B03E024
:1004A00010F8016B01F8016B521EF9D1ABB110F8D5
:1004B000012B04F00C048A1A0C2C03D0A2EB84123A
:1004C0009B1C08E010F8014BA2EB0422F8E712F89D
:1004D000014B01F8014B5B1EF9D5A942D4D3002092
:1004E00070BD10B500F0D8F910BD70B506460C46C9
:1004F000154608E03046721C96B200F007F804F882
:10050000010B681E85B2002DF4D170BD70B5044694
:10051000002600F063FA2546E11704EB1161091289
:10052000A02202EB4101C8B200F026FA00F08EFAD8
:10053000E11704EB11610912A4EB0121C8B200F02C
:100540001BFA00F083FA00F049FAA12000F014FA37
:1005500000F07CFA002000F0E3F9064600F05AFAB9
:10056000304670BD70B505460C46164606E021784B
:10057000284600F009F8681C85B2641C3000A6F11A
:1005800001018EB2F3D170BD70B504460E4600F085
:1005900025FA2546E11704EB11610912A02202EBAE
:1005A0004101C8B200F0E8F900F050FAE11704EB9D
:1005B00011610912A4EB0121C8B200F0DDF900F0CD
:1005C00045FA304600F0D8F900F040FA00F022FA7F
:1005D0000A2002F057FA70BD10B5012000F09AFE13
:1005E000002000F097FE10BD08B5014600200090E5
:1005F000034800900098084400900098008808BDC7
:10060000006C004008B500220092044A0092009A53
:1006100002440092009A116008BD0000006C004086
:1006200000BFFEE77047000051B18200A2F1C04256
:10063000126842F001038200A2F1C042136009E097
:100640008200A2F1C0421268034B1A408300A3F15A
:10065000C0431A6070470000FEFF0F00D0E901128E
:100660001143C2681143026911434269114382690F
:100670001143C2691143026A1143426A1143826AFB
:100680001143C26A1143026B114302689200A2F146
:10069000C0421160816808290BD101688900A1F16D
:1006A000C041096841F0400201688900A1F1C041E0
:1006B0000A60416B0968426B526841EA0211426B61
:1006C000926841EA0221426B928941EA0241426BFF
:1006D000128A41EA0251426B127D41EA0261426B89
:1006E000926911430268521C9200A2F1C04211604B
:1006F000C16AB1F5804F1BD1816B0968826B52686A
:1007000041EA0211826B926841EA0221826B128AED
:1007100041EA0251826B127D41EA0261826B926969
:10072000114302689200A2F1C042C2F8041107E02E
:100730006FF0704201688900A1F1C041C1F8042145
:1007400070472DE9F04102460025002600200023D5
:100750000024002791F803C00CF00F0591F803C0A6
:100760000CF0100CBCF1000F03D091F802C04CEA61
:10077000050591F800C0BCF1000F31D014680020CD
:100780002BE04FF0010C0CFA00F3B1F800C00CEABA
:1007900003069E4220D183004FF00F0C0CFA03F7A2
:1007A000BC4305FA03FC4CEA040491F803C0BCF115
:1007B000280F06D14FF0010C0CFA00FCC2F814C04F
:1007C0000AE091F803C0BCF1480F05D14FF0010CCD
:1007D0000CFA00FCC2F810C0401C0828D1D31460E9
:1007E000B1F800C0BCF1FF0F34DD546800202EE0EA
:1007F00000F1080C4FF0010808FA0CF3B1F800C042
:100800000CEA03069E4221D183004FF00F0C0CFA34
:1008100003F7BC4305FA03FC4CEA040491F803C057
:10082000BCF1280F05D100F1080C08FA0CF8C2F849
:10083000148091F803C0BCF1480F07D100F1080CF7
:100840004FF0010808FA0CF8C2F81080401C082884
:10085000CED35460BDE8F0810161704700BFFEE770
:1008600010B500200A49086001F02EF8002009495F
:10087000C1F8AC01022002F02BF901200449086004
:10088000052002F025F900200249C1F8A80110BD99
:10089000A88121420080214208B50121082000F0F2
:1008A00029FD4FF48060ADF8000003208DF80200B0
:1008B00010208DF8030069460848FFF742FF4FF407
:1008C0000060ADF8000069460448FFF73AFF0120D8
:1008D000034908600349C1F8AC0108BD000C0140A0
:1008E000A88121420080214210B500200A490860F9
:1008F00000F0EAFF01200949C1F8AC01022002F032
:10090000E7F8012004490860052002F0E1F8002022
:100910000249C1F8A80110BDA881214200802142EE
:1009200070B50546002400F0BFFF002616E0002049
:100930000F490860022002F0CBF801200D49C1F8F0
:10094000A8016006040E0A487C38006808B1601CE3
:10095000C4B2012002F0BCF8701CC6B2082EE6DB5F
:1009600015B9FFF7C1FF01E0FFF77AFF204670BD20
:10097000A88121420080214270B5044600F0A4FF06
:10098000002014490860002520E004F080000028C1
:1009900004DD01200F49091D086003E000200D4916
:1009A000091D08606006040E022002F091F8012083
:1009B00008490860022002F08BF800200649C1F8BF
:1009C000A801022002F084F8681CC5B2082DDCDB07
:1009D00070BD0000A88121420080214210B500F0C6
:1009E00073FF0120094908600949C1F8A8010520E1
:1009F00002F06EF8002005490860062002F068F851
:100A000000200349C1F8A80110BD0000AC812142BB
:100A10000080214210B500F057FF0020094908600E
:100A20000949C1F8AC01012006490860062002F01E
:100A30004FF801200449C1F8AC01062002F048F843
:100A400010BD0000A88121420080214210B5002481
:100A500000F02AFF01200E49086002F039F8012059
:100A60000C49C1F8A80102F033F807E0601CC4B2D9
:100A7000FA2C03DDFFF7CEFF012010BD04488038BB
:100A800000680028F2D10249091F086000BFF4E79E
:100A9000AC812142008021420146CA1701EB9272CB
:100AA0009210A1EB820292B9642091FBF0F200FB5C
:100AB000121050B94FF4C87091FBF0F200FB121005
:100AC00008B9012070470020FCE70120FAE7002068
:100AD000F8E7000008B50121442000F00BFC0120DC
:100AE000ADF8000028208DF8030003208DF80200E7
:100AF00069460848FFF725FE1C20ADF80000482095
:100B00008DF8030003208DF8020069460248FFF7C4
:100B100018FE08BD000801400018014010B5044649
:100B200022480078012826D12148006801280AD0EF
:100B30002048006838B11F48001F006818B11D48E0
:100B4000001D0068B8B91E2001F09CFF0020174965
:100B5000087017480068012800D110BD15480068CA
:100B600008B90220F9E71348001F006808B90320FC
:100B7000F3E70420F1E70E48006878B90D480068F3
:100B800001280BD10B48001F0068012806D1094835
:100B9000001D0068012801D104490870012C02D110
:100BA0000120024908700020D7E70000123200201F
:100BB000000121420C01234270B506460F484088CF
:100BC000401E83B20D480088401E82B200210846B4
:100BD00000F05EF900240CE0002504E0304600F04F
:100BE000FBFA681C85B205484088A842F6DC601C08
:100BF00084B202480088A042EEDC70BD0A000020EA
:100C000000B50346B3B9012000F0D2FA4FF480706A
:100C100000F0D8FA032000F0CBFA41F2300000F0E7
:100C2000D1FA4FF4C8700E494880F02008800020A7
:100C3000887114E0012000F0BBFA002000F0C2FA35
:100C4000032000F0B5FA41F2380000F0BBFAF020C2
:100C5000034948804FF4C87008800120887100BDA6
:100C60000A00002070B504460D4616462B46224663
:100C70002946204600F00CF9304600F0ADFA70BD70
:100C80002DE9FF4F84B081468A46002002908346BA
:100C90000698A0EB09050798A0EB0A06CDF804908A
:100CA000CDF800A0002D01DD012705E00DB90027DA
:100CB00002E04FF0FF376D42002E02DD4FF00108D9
:100CC00006E016B94FF0000802E04FF0FF38764218
:100CD000B54201DD2C4600E03446002003901EE0C2
:100CE000009A91B2019A90B2119AFFF7BBFF029855
:100CF00028440290B3440298A04205DD0298001BEC
:100D00000290019838440190A34504DDABEB040B3D
:100D10000098404400900398401C80B20390611CEE
:100D200003988842DCDD08B0BDE8F08F2DE9F8417A
:100D300005460E4617469846079C33463A463146C6
:100D400028460094FFF79CFF43462A463146284632
:100D50000094FFF795FF43463A46414628460094E3
:100D6000FFF78EFF43463A46314638460094FFF778
:100D700087FFBDE8F881F0B504460D46174605F13A
:100D8000010C1FFA8CF304F1010C1FFA8CF2A5F18F
:100D9000010C1FFA8CF1A4F1010C1FFA8CF000F089
:100DA00077F8002604E0384600F016FA701CC6B248
:100DB000092EF8DB211D8AB2211F88B22B46294655
:100DC00000F066F8002604E0384600F005FA701CD2
:100DD000C6B2092EF8DB281D83B2281F81B2224635
:100DE000204600F055F8002604E0384600F0F4F9FB
:100DF000701CC6B2092EF8DBF0BD2DE9F0430446A5
:100E00000D4616461F46DDF81C80B44201DCBD428B
:100E100001DDBDE8F0833B4632462946204600F01E
:100E200037F8301B401C84B2781B401C85B20BE0A5
:100E3000A94602E0404600F0CFF95FEA0900A9F1B7
:100E400001011FFA81F9F5D12000A4F101018CB252
:100E5000EED100BFDDE710B501460023CA0AC1F399
:100E6000451401F01F03500340EA841040EA430098
:100E700010BD00000549098848104FF6FF7101EACE
:100E800000200249098840EA610070470008006CB0
:100E900070B506460C4615462E48807950BB4FF477
:100EA000047000F085F9304600F08CF940F2112012
:100EB00000F07EF9284600F085F940F2122000F09B
:100EC00077F9204600F07EF940F2132000F070F927
:100ED000184600F077F94FF4007000F069F93046D9
:100EE00000F070F940F2012000F062F9204600F0B5
:100EF00069F929E040F2122000F05AF9304600F07A
:100F000061F940F2132000F053F9284600F05AF935
:100F10004FF4047000F04CF9204600F053F940F211
:100F2000112000F045F9184600F04CF940F201207C
:100F300000F03EF9304600F045F94FF4007000F043
:100F400037F9204600F03EF940F2022000F030F977
:100F500070BD00000A0000202DE9F84F06468846C3
:100F600015461C460027B946AA462046E31704EB5F
:100F70005373DB1021464FEAE47C04EB5C7C4FEAC0
:100F8000EC0CA4EBCC0CBCF1000F02D04FF0010C28
:100F900001E04FF0000C6344224604EBD27C4FEAA0
:100FA0006C0C03FB0CFBA6F12000C6B2002744E04A
:100FB0000C2C04D0102C0AD0182C16D10DE006EB06
:100FC0004600204901EB8000C05D00900DE01E4806
:100FD00000EB0610C05D009007E006EBC6001B4961
:100FE00001EB8000C05D009000BF00BF4FF0000922
:100FF0001EE0C9F10701012088400099084030B186
:10100000A9B21FFA88F00A9AFFF72CFE05E0A9B2F0
:101010001FFA88F00B9AFFF725FE6D1CA5EB0A005E
:10102000A04203D108F10108554604E009F1010985
:10103000B9F1080FDDDB00BF7F1C5F45B8DBBDE801
:10104000F88F0000CC360008403B00083041000813
:101050002DE9FF4F81B004460F461546A346009781
:1010600052E0002649E006EB06102A4911F810006C
:10107000297888423FD106EB0610264901EB400053
:1010800040786978884236D14FF0000830E006EBAE
:101090000610204901EB4000801C10F808A04FF01A
:1010A00000091EE00AF08000802804D1394620465D
:1010B000049AFFF7D7FD4FF6FF7000EA4A0A601C5A
:1010C00084B2A4EB0B00102807D15C46781C87B2D1
:1010D0000098381A102800D1009F09F1010000F093
:1010E000FF09B9F1080FDDDB08F1010000F0FF088E
:1010F000B8F1200FCBDB701CC6B2642EB3DBAD1C85
:1011000004F1100084B2A34628780028A9D105B0C4
:10111000BDE8F08FB25200082DE9F04F80468946B5
:1011200015461E46DDF824A000270024A34609EB3F
:101130000600401E83B208EB0500401E82B24946FD
:101140004046FFF7A5FE05FB06F04FEA400B00BF47
:10115000601C1AF800704FF6FF7000EA07271AF8B3
:1011600004000743384600F037F8A41C5C45EFDB69
:10117000BDE8F08F2DE9FC5F04460D461746984602
:10118000DDE90C9A2046FFF713F8834600260AE0B3
:10119000CDE9009A207843463A462946FFF7DCFE1F
:1011A000641C0B35761C5E45F2DBBDE8FC9F00003D
:1011B00001124900024A11800106C90D11807047D1
:1011C000FE07006C01124900024A11800106C90D98
:1011D000118070470008006C30B505460024284691
:1011E000FFF739FE0446C4F34F20024908800C8003
:1011F00030BD00000008006C08B50121102000F08F
:1012000079F8FF20ADF8000010208DF803000320CE
:101210008DF8020069460448FFF793FAFF2102485F
:10122000FFF71AFB08BD00000010014000BFFEE7F9
:101230007047000070B5002100230F22C47804B36A
:10124000154C246804F4E064C4F5E064210AC1F19B
:101250000403CA40447804FA03F18478144021431B
:1012600009010E4C0678A155047804F01F050124ED
:10127000AC4005786D11AD0005F1E025C5F80041E1
:1012800009E0047804F01F050124AC40044D067801
:10129000761145F8264070BD0CED00E000E400E05A
:1012A00080E100E0014908627047000000000E4242
:1012B0007047000029B1064A52690243044B5A6143
:1012C00004E0034A52698243014B5A6170470000AF
:1012D0000010024029B1064AD2690243044BDA6188
:1012E00004E0034AD2698243014BDA61704700008F
:1012F0000010024029B1064A92690243044B9A61E8
:1013000004E0034A92698243014B9A6170470000EE
:10131000001002400149086070470000400442424A
:1013200010B501460022002300204A11012A02D1F3
:10133000094C236806E0022A02D1074C236A01E027
:10134000054C636A01F01F02012494401C400CB15B
:10135000012000E0002010BD0010024000210B4AD7
:1013600011700A4A203A82F82010012802D004287D
:1013700008D103E00121054A117004E00521034A68
:10138000117000E000BF00BF704700002010024055
:1013900001490860704700003C0442420249096A62
:1013A0000143014A11627047001002400249098856
:1013B0008143014A11807047042800400348008897
:1013C00040F01000014908807047000004280040E8
:1013D000034800884FF6EF710840014908807047C4
:1013E0000428004070B500260024002500F07AF89B
:1013F00006463848B6FBF0F437480088A0423CD097
:1014000035490C8040F2B27510E02846FFF744FBE6
:1014100040B1B4F5B77F02D3A4F5B77404E0681CFB
:1014200085B206E0A4F26D14681C85B2B4F5B67FEF
:10143000EBD800BF29488580002516E02749888819
:10144000FFF72AFB30B1012D04D11D2C01D31D3C27
:1014500009E00CE02248405DA04203D82048405DEE
:10146000241A00E003E0681C85B21C2CE6D200BF01
:10147000681C1A498871601CC8711648B6FBF0F1E7
:1014800000FB11644FF46160B4FBF0F01349087085
:101490004FF46160B4FBF0F100FB11403C21B0FB64
:1014A000F1F00E4948704FF46160B4FBF0F100FBBD
:1014B00011403C21B0FBF1F201FB1200074988709A
:1014C0000B46DA799979988800F028F80349087270
:1014D000002070BD805101001C320020385A0020CD
:1014E00016610008002103480188001F008841EAB6
:1014F000004070471C28004001460020064A128820
:101500000A40D0B2044A121F12880A4012B108B130
:10151000012000E00020704704280040F0B5034699
:101520000C461546642093FBF0F0C6B2642093FB92
:10153000F0F700FB1730C1B2132E02DD01F1640099
:10154000C1B20846CF1701EB977701EBA707BAB2F4
:10155000072092FBF0F700FB172082B25719601E9C
:10156000DFF82CC01CF80000384482B2CF1701EB22
:101570009777BF10A1EB87071FB9032C01DA501E24
:1015800082B2072092FBF0F700FB1720C0B2F0BD3B
:101590000A61000800B58DB0202105A8FEF7FDFD09
:1015A0000120FFF7A9FF00B3FFF71CFF1F48807859
:1015B0001E4949781D4A12781C4BDB79CDE900326F
:1015C000CDE9021019488379828819A105A801F094
:1015D0008FF84FF6FF7000210C2340F23112CDE955
:1015E00000100A2105A8FFF7C5FD0220FFF784FFC0
:1015F000A0B10220FFF7DAFEFFF7F4FE0B48807877
:101600000A494978094A1278CDE900210290074831
:10161000C379827981880DA001F05AF80520FFF77F
:10162000C5FE00F025F90DB000BD0000385A0020BD
:1016300025642D253032642D25303264202530324A
:10164000643A253032643A2530326400416C61726C
:101650006D2054696D653A25642D25642D2564201F
:1016600025643A25643A25640A00000029B1064A37
:1016700012880243044B1A8004E0034A1288824312
:10168000014B1A8070470000002800401CB5002460
:1016900001214FF0C050FFF71DFE0120FFF702FEB1
:1016A0000420FEF7A1FF4AF2A001884240D0FEF7D5
:1016B00093FF0120FFF752FE04E0601CC4B20A2031
:1016C00001F0E0F94120FFF72BFE08B9FA2CF4DB1A
:1016D000FA2C01DB01201CBD4FF48070FFF75EFE89
:1016E0000120FFF755FE00F0C3F800F0CBF8012110
:1016F0000846FFF7BBFF00F0BBF8FFF75FFE47F6B9
:10170000FF7000F0A5F800F0B3F837202221112374
:101710001622CDE90010032140F2E17000F026F816
:10172000FFF756FE4AF2A0010420FEF76BFF07E028
:1017300000F0A8F801210846FFF798FF00F098F89C
:1017400000F004F8FFF74EFE0020C4E708B50320C0
:101750008DF8000000208DF801008DF802000120B6
:101760008DF803006846FFF765FD08BD2DE9F05FC1
:1017700006460F4690469946DDE90AAB002440F242
:10178000B270864203DB40F63300864202DD012060
:10179000BDE8F09F40F2B2750AE02846FFF77CF9F9
:1017A00010B12048044401E01F480444681C85B27D
:1017B000B542F2DB781EC7B2002510E01B48405D41
:1017C00040F2A321484304EBC0143046FFF764F90C
:1017D00018B1012D01D116480444681C85B2BD42E0
:1017E000ECDBA8F1010040F2A321484304EBC01454
:1017F000C9EB4910C0EB092004EB0014CAEB0A1036
:1018000004EB80045C4401214FF0C050FFF762FDFF
:101810000120FFF747FD204600F00CF800F028F803
:101820000020B5E70085E2018033E1011661000880
:101830008051010000B50246FFF7C0FD100C0349BE
:101840000880091D0A80FFF7C3FD00BD182800406D
:1018500000B50246FFF7B2FDC2F30340034908801A
:10186000091D0A80FFF7B4FD00BD000008280040F4
:1018700000BF0348008800F020000028F9D070471E
:1018800004280040074800884FF6F77108400549D2
:10189000088000BF0348008800F008000028F9D045
:1018A000704700000428004008B54FF40060ADF810
:1018B000000048208DF8030069460248FEF741FF0A
:1018C00008BD0000000C014008B54FF40060ADF801
:1018D000000003208DF8020010208DF803006946F7
:1018E0000148FEF72EFF08BD000C014000B587B08F
:1018F00001210420FFF7FEFC01210803FFF7FAFC99
:10190000E020ADF8180018208DF81B0003208DF89A
:101910001A0006A91548FEF714FF0020ADF80400D0
:101920004FF48270ADF806000020ADF808000220E8
:10193000ADF80A000120ADF80C004002ADF80E0031
:101940003820ADF810000020ADF812000720ADF8E7
:10195000140001A9064800F057F80121044800F0DE
:1019600039F8FF2000F006F807B000BD000801407C
:101970000030014010B5044600BF02210A4800F0C3
:1019800035F80028F9D02146074800F03BF800BFA1
:101990000121054800F02AF80028F9D0024800F09B
:1019A0002EF8C0B210BD00000030014010B5044652
:1019B000074800884FF6C771084005490880084667
:1019C0000088204308800121014800F003F810BD81
:1019D0000030014021B1028842F04002028004E060
:1019E00002884FF6BF731A400280704702460020FB
:1019F00013890B400BB1012000E000207047014625
:101A0000888970478181704710B50022028802F4EE
:101A100041520B884C8823438C882343CC88234332
:101A20000C8923434C8923438C892343CC8923434A
:101A30001A430280838B4FF2FF74234083830B8A07
:101A4000038210BD704710B500F002F810BD000011
:101A50000CB50020019000903348006840F48030BD
:101A60003149086000BF3048006800F40030009041
:101A70000198401C0190009818B90198B0F5A06F2A
:101A8000F1D12948006800F4003010B10120009025
:101A900001E0002000900098012843D1234800680D
:101AA00040F01000214908600846006820F003005B
:101AB00008600846006840F0020008601A48406864
:101AC000194948600846406848600846406840F444
:101AD000806048600846406820F47C1048600846F2
:101AE000406840F4E81048600846006840F08070A4
:101AF000086000BF0C48006800F000700028F9D0B2
:101B00000948406820F003000749486008464068DB
:101B100040F00200486000BF0348406800F00C003D
:101B20000828F9D10CBD000000100240002002403E
:101B3000042808D14FF0E021096941F004014FF079
:101B4000E022116107E04FF0E021096921F0040172
:101B50004FF0E022116170477047000010B5044655
:101B60006FF00400FFF7E4FFE11704EB5171C1F3DC
:101B7000C701074A11701046007800EB4001C1EB25
:101B8000C0104FF6FF7101EAC0000249088010BD85
:101B9000305900203259002010B51348006840F039
:101BA00001001149086008464068104908400E4984
:101BB0004860084600680E4908400B49086008461E
:101BC000006820F4802008600846406820F4FE0089
:101BD00048604FF41F008860FFF735FF4FF000604A
:101BE0000449086010BD0000001002400000FFF82A
:101BF000FFFFF6FE08ED00E000B59DB001210802F0
:101C0000FFF758FB01200790002008900F20099053
:101C100000200A900B900C900D90152000900190E0
:101C20000520029000200390049005900690062065
:101C30000E9000200F901090102011900020129014
:101C400014901390159016904FF480501790002028
:101C500018904FF48040199000201A9007A81B900C
:101C6000CDF870D00EA8FEF7F9FC01210620FEF792
:101C7000DBFC1DB000BD000008B501214FF4B070C1
:101C8000FFF738FB4CF23370ADF8000018208DF8E8
:101C9000030003208DF8020069461048FEF751FD4D
:101CA0004FF68070ADF8000018208DF80300032077
:101CB0008DF8020069460A48FEF743FD41F2010033
:101CC000ADF8000018208DF8030003208DF8020005
:101CD00069460448FEF735FD08BD000000140140C8
:101CE000001801400020014010B5FFF7C5FFFFF7C5
:101CF00083FF322000F0C6FE0020FFF759FAFFF7FD
:101D0000B9F8C44988800020FFF752FA0020FFF795
:101D10004FFA0A2000F0B6FE0020FFF749FA002033
:101D2000FFF746FA0020FFF743FA0020FFF740FADA
:101D3000A420FFF73DFA0120FFF744FA0A2000F043
:101D4000A1FE6020FFF734FA4FF41C50FFF73AFA77
:101D50000820FFF72DFA40F60800FFF733FA4FF49A
:101D60004070FFF725FA40F20910FFF72BFA40F216
:101D70000130FFF71DFA47F60A60FFF723FA40F239
:101D80000230FFF715FA40F20470FFF71BFA40F239
:101D90000330FFF70DFA40F61110FFF713FA4FF476
:101DA0004170FFF705FA4FF40450FFF70BFA40F2C9
:101DB0000530FFF7FDF941F20910FFF703FA40F291
:101DC0000630FFF7F5F947F20740FFF7FBF940F25D
:101DD0000730FFF7EDF940F60E20FFF7F3F94FF467
:101DE0004270FFF7E5F940F60110FFF7EBF940F21A
:101DF0000930FFF7DDF92120FFF7E4F91020FFF7A4
:101E0000D7F91020FFF7DEF91120FFF7D1F940F2E2
:101E10000220FFF7D7F91220FFF7CAF94FF44070FC
:101E2000FFF7D0F91320FFF7C3F90720FFF7CAF92E
:101E30000A2000F027FE4FF48070FFF7B9F9002068
:101E4000FFF7C0F940F20110FFF7B2F90720FFF7E2
:101E5000B9F94FF48170FFF7ABF90020FFF7B2F941
:101E600040F20310FFF7A4F90020FFF7ABF94FF49D
:101E70002070FFF79DF90020FFF7A4F9C82000F0BB
:101E800001FE4FF48070FFF793F94FF44C70FFF7A9
:101E900099F940F20110FFF78BF940F24720FFF764
:101EA00091F9322000F0EEFD4FF48170FFF780F9D8
:101EB0004DF2B010FFF786F9322000F0E3FD40F25A
:101EC0000310FFF775F94FF48050FFF77BF94FF4DB
:101ED0002070FFF76DF94FF44640FFF773F9C82003
:101EE00000F0D0FD0120FFF763F94FF48070FFF799
:101EF00069F90220FFF75CF94FF40070FFF762F90F
:101F00000320FFF755F941F23000FFF75BF9092094
:101F1000FFF74EF90120FFF755F90A20FFF748F9BE
:101F20000820FFF74FF90C20FFF742F90020FFF7D8
:101F300049F90D20FFF73CF90020FFF743F90E2087
:101F4000FFF736F93020FFF73DF92020FFF730F991
:101F50000020FFF737F92120FFF72AF90020FFF7CB
:101F600031F92920FFF724F95220FFF72BF95020EF
:101F7000FFF71EF90020FFF725F95120FFF718F9A8
:101F8000EF20FFF71FF95220FFF712F90020FFF7AB
:101F900019F95320FFF70CF940F23F10FFF712F93F
:101FA0006120FFF705F90020FFF70CF96A20FFF721
:101FB000FFF80020FFF706F98020FFF7F9F800206E
:101FC000FFF700F98120FFF7F3F80020FFF7FAF898
:101FD0008220FFF7EDF85F20FFF7F4F89320FFF77A
:101FE000E7F840F20750FFF7EDF80720FFF7E0F8B9
:101FF0004FF48070FFF7E6F8322000F043FD222016
:10200000FFF7D6F80020FEF7FBFD4FF6FF70FEF756
:10201000D3FD10BD0A00002010B50121054800F0D5
:1020200096F828B101F0CAF80121024800F080F8C2
:1020300010BD0000000400407FB505460C4601219C
:102040000220FFF747F9ADF80850ADF80440002032
:10205000ADF80A00ADF8060001A90E4800F092F8AC
:10206000012211460B4800F083F81D208DF8000076
:1020700000208DF8010003208DF8020001208DF86A
:1020800003006846FFF7D6F80121024800F053F834
:102090007FBD00000004004010B50121084800F099
:1020A00056F838B10748006808B9012000E0002060
:1020B000044908600121024800F03AF810BD000010
:1020C00000080040840122427FB505460C460121EC
:1020D0000420FFF7FFF8ADF80850ADF804400020E9
:1020E000ADF80A00ADF8060001A9104800F04AF862
:1020F000012211460D4800F03BF801210B4800F089
:1021000017F81E208DF8000002208DF80100032032
:102110008DF8020001208DF803006846FFF78AF869
:102120000121024800F007F87FBD000000080040D0
:10213000CA430282704721B1028842F00102028044
:1021400004E002884FF6FE731A400280704730B5F3
:102150000246002000230024158A05EA0103958920
:1021600005EA010413B10CB1012000E0002030BDEC
:102170001AB183890B43838102E083898B43838176
:1021800070470000002202881D4B98420ED01D4B64
:1021900098420BD0B0F1804F08D01B4B984205D02D
:1021A0001A4B984202D01A4B984204D14FF68F73C3
:1021B0001A404B881A43174B984207D0164B984247
:1021C00004D04FF6FF431A40CB881A4302808B8815
:1021D00083850B8803850A4B98420BD0094B9842A4
:1021E00008D00E4B984205D00D4B984202D00D4BB3
:1021F000984201D10B7A0386012383827047000045
:10220000002C014000340140000400400008004060
:10221000000C00400010004000140040004001404D
:1022200000440140004801402DE9F04387B001AB74
:1022300003AA0A21084600F001F910B107B0BDE871
:10224000F0834FF4FA7000F01DFC614840880A38B2
:1022500081B20DF106030DF10E020A2000F0EEF836
:1022600000B1EBE74FF4FA7000F00CFC5849098814
:102270000A3988B202AB04AA0A2100F0DFF800B1E3
:10228000DCE74FF4FA7000F0FDFB514A52880A3A3D
:1022900091B24F4A12880A3A90B20DF10A030DF139
:1022A000120200F0CBF800B1C8E74FF4FA7000F06A
:1022B000E9FBBDF80C10BDF80E20881800EBD071BA
:1022C000C1F34F01ADF81810BDF80410BDF8082097
:1022D000881800EBD071C1F34F01ADF81410BDF8B0
:1022E0001210BDF81020881800EBD071C1F34F0117
:1022F000ADF81A10BDF80A10BDF80620881800EBDA
:10230000D071C1F34F01ADF81610BDF81A10BDF829
:102310001820881AFEF71BF806462D490988A1F1F6
:102320001400FEF714F807463146FDF7D2FF0446C5
:10233000BDF81610BDF81420881AFEF708F80646F6
:1023400023494988A1F11400FEF701F807463146F8
:10235000FDF7BFFF0546BDF81A00FEF701F88146FC
:102360002146FDF784FF0746194909880A3908B252
:10237000FDF7EDFF80463946FDF773FF0646FDF792
:10238000F4FF00B213494880BDF81600FDF7E8FFDE
:1023900081462946FDF76BFF07460D4949880A39F2
:1023A00008B2FDF7D4FF80463946FDF75AFF0646CE
:1023B000FDF7DBFF00B20749888008468460C560EE
:1023C000592008701022C820FEF7CCF800BF35E76E
:1023D0000A000020285A002008B501212020FEF71D
:1023E00089FF4020ADF8000010208DF80300032085
:1023F0008DF8020069460F48FEF7A3F98020ADF87A
:10240000000048208DF8030069460A48FEF799F954
:10241000FFF76CFAFEF765F810220749C820FEF7AF
:1024200064F805480078592801D0FFF7FDFEFFF752
:10243000FBFE08BD00140140285A00202DE9F0479A
:102440008046894614461D4615480088FEF7B4FBB1
:102450004FF4784249464046FEF78DFC00261DE0C9
:102460002946204600F082F860B9701CC6B20C2ED6
:1024700008DD0B48028849464046FEF77CFC0020F8
:10248000BDE8F0877F1C17F1020F07D904480288C6
:1024900049464046FEF76FFCFF20F1E7E0E7000009
:1024A000080000202DE9F04194B080461820FFF785
:1024B0007DFA002425E000202A4908604046FFF705
:1024C00059FAFF20FFF756FA2DF814003DF81400D2
:1024D0004FF6FF7101EA00202DF81400FF20FFF7EE
:1024E00049FA3DF8141008432DF814003DF8140083
:1024F000C0102DF8140001201B49C1F89801601C80
:10250000C4B2282CD7DB002416E0601CC5B20FE053
:102510003DF814003DF81510884207DA3DF81460C4
:102520003DF815002DF814002DF81560681CC5B293
:10253000282DEDDB601CC4B2272CE6DB2725002705
:10254000012404E03DF814000744601CC4B2AC420E
:10255000F8DB2620B7FBF0F086B2304614B0BDE8B9
:10256000F081000098812242008022422DE9F0474C
:1025700004460D46D020FFF795FF06469020FFF752
:1025800091FF0746D020FFF78DFF80469020FFF790
:1025900089FF8146464503DDA6EB0800208002E066
:1025A000A8EB060020804F4503DDA7EB090028803B
:1025B00002E0A9EB070028802088142802DC288884
:1025C000142802DDFF20BDE8F08706EB080000EBD1
:1025D000D071C1F34F01218007EB090000EBD071EE
:1025E000C1F34F0129802088B0F57A6F09DC20887B
:1025F000642806DB2888B0F57A6F02DC2888642816
:1026000001DAFF20DFE70020DDE700002DE9F041DF
:102610002B49881EFFF7AAFF10B1FF20BDE8F0810B
:102620002849B1F90200FDF792FE06462449891EA9
:102630000888FDF795FE0746224881683846FDF771
:1026400016FE05463146FDF7BAFD0446FDF7A6FE27
:102650001B49891E88801B49B1F90400FDF777FEEC
:1026600006461749891E4888FDF77AFE0746154831
:10267000C1683846FDF7FBFD05463146FDF79FFD75
:102680000446FDF78BFE0E49891EC88008468088E7
:102690000D490988884204DD0B4800880849891ED5
:1026A00088800748801EC08807494988884204DD21
:1026B000054840880249891EC8800020AEE7000016
:1026C00016320020285A00200A00002000BFFEE732
:1026D0000FB4054B10B503A9044A029800F02CF87A
:1026E00010BC5DF814FB00001D2B000838590020B9
:1026F0000FB4084B10B504A902AA039800F01CF807
:10270000044602A9002000F0B8F9204610BC5DF88C
:1027100014FB00007B2A000802E008C8121F08C151
:10272000002AFAD170477047002001E001C1121F52
:10273000002AFBD1704700002DE9FF4F8BB088467F
:102740000546002606E025280BD0DDE90D1290474E
:102750006D1C761C28780028F5D10FB03046BDE8F6
:10276000F08F0024A146A2460122AE4900E00443B6
:1027700015F8013F203B02FA03F00842F7D1287810
:102780002A2810D06FF02F022878A0F130010929F3
:1027900015D809EB890102EB410144F0020400EB7A
:1027A00001096D1CF0E758F8041B5FEA010903D525
:1027B00044F40054C9F1000944F002046D1C287867
:1027C0002E2817D115F8010F44F004042A280ED042
:1027D0006FF02F022878A0F1300109290AD80AEBFE
:1027E0008A0102EB410100EB010A6D1CF2E758F887
:1027F00004AB6D1C28786C280FD006DC4C2817D051
:1028000068280DD06A2814D104E0742810D07A28E2
:102810000FD10DE044F400140AE044F4801401E008
:1028200044F440146978814202D104F580146D1C8F
:102830006D1C2878692865D006DC00288DD06328B7
:1028400027D0642806D15DE06E2808D073282AD0EE
:10285000752877D0DDE90D129047761CE0E0C4F3CF
:102860000250022809D003280DD0D8F800100428FF
:102870000DD00E6008F10408D2E0D8F80010F2176D
:10288000C1E90062F6E7D8F800100E80F2E70E709A
:10289000F0E718F8041B8DF8001000208DF80100F7
:1028A000EB46012003E058F804BB4FF0FF3061070E
:1028B0004FF0000701D40AE07F1C57450DDA87422C
:1028C000FADB1BF807100029F6D106E07F1C8742CF
:1028D000FCDB1BF807100029F8D1DDE90D23A9EB7B
:1028E00007008146214600F0B1F83044C61904E0E3
:1028F000DDE90D121BF8010B90477F1EF8D221462F
:10290000484688E058F8040BC4F302514FF00A0B14
:10291000032900D100B2042900D140B2002802DA14
:1029200040422D2102E0210505D52B218DF82410F0
:10293000012104E006E0E10710D02021F6E708AF0E
:10294000089113E058F8040BC4F302514FF00A0B3E
:10295000032900D180B2042900D1C0B20021EEE7E2
:102960005946FDF72FFD303107F8011D0028F7D13A
:10297000ADEB070000F1200B600702D524F4803492
:1029800001E04FF0010ADA4502DDAAEB0B0000E09E
:102990000020824600EB0B0108980144A9EB0100DE
:1029A0000A90E00306D4DDE90D2321460A9800F0E1
:1029B0004DF806444FF0000908E009A911F8090094
:1029C000DDE90D12904709F10109761C0899894546
:1029D000F3DBE0030CD5DDE90D2321460A9800F076
:1029E00035F8064404E0DDE90D1230209047761CEE
:1029F000BAF10001AAF1010AF5DC05E0DDE90D12EA
:102A000017F8010B9047761CBBF10001ABF1010BED
:102A1000F4DC0A982146DDE90D2300F005F80644B0
:102A20006D1C97E6092801002DE9F04104460025B8
:102A30001E461746880404D405E039462020B047D6
:102A40006D1C641EF9D52846BDE8F0812DE9F041E2
:102A5000044600251E469046C80301D5302700E0F5
:102A60002027880404D505E041463846B0476D1C50
:102A7000641EF9D52846BDE8F0810A68531C0B6036
:102A8000107070470146114A12884A434FF0E02304
:102A90005A6100229A611A46126942F001021A61D3
:102AA00000BF4FF0E022106900F001021AB100F4FB
:102AB0008032002AF5D04FF0E022126922F00102A4
:102AC0004FF0E0231A6100229A61704732590020CA
:102AD0000146114A12784A434FF0E0235A6100221E
:102AE0009A611A46126942F001021A6100BF4FF062
:102AF000E022106900F001021AB100F48032002ACD
:102B0000F5D04FF0E022126922F001024FF0E023ED
:102B10001A6100229A6170473059002038B5044686
:102B20008DF8000069460320ABBE204638BD00008A
:102B30001CB50020084908704FF6FF7000211823CB
:102B40000D22CDE90010114604A0FEF713FB4FF44F
:102B5000FA70FFF797FF1CBD010000202047414D90
:102B600045204F564552000008B5002400BF00BF65
:102B70004820FEF7F3FFFEF73FFBFDF7ABFFFFF743
:102B8000B3F8FFF729FC4FF6FF70FEF715F800F0D9
:102B900055FBFEF77BFD48F69F414FF47A70FFF737
:102BA00093FAF9E034B1012C58D0022C7ED0032CDA
:102BB00053D1CFE0FFF72AFD00284ED17748808817
:102BC00014284ADD75488088642846DA7348C0882E
:102BD000E62842DD7148C088FA283EDA4FF6E070F8
:102BE000FA236422E62100901420FEF79FF84FF4A8
:102BF000FA70FFF747FF4FF6FF70FDF7DDFF00F0BB
:102C000021FC012427E0FFF701FD18BB6348808801
:102C1000AA281FDD61488088EC281BDA5F48C0883D
:102C2000462817DD5D48C0885A2813DA4FF47840EB
:102C30005A23EC2246210090AA20FEF777F84FF4A1
:102C4000FA70FFF71FFF4FF6FF70FDF7B5FF00F0BA
:102C5000B3FC022400E0D6E700BF9CE0FFF7D6FCFF
:102C6000E8BB4E488088AA281FDD4C488088EC28A5
:102C70001BDA4A48C088462817DD4848C0885A28C9
:102C800013DA4FF6E0705A23EC2246210090AA2076
:102C9000FEF74CF84FF4FA70FFF7F4FE4FF6FF70B2
:102CA000FDF78AFF00F088FC022400E026E03B48A4
:102CB0008088462821DD39488088AA281DDA3748CF
:102CC000C088AF2819DD3548C088E12815DA4FF6ED
:102CD000E070E123AF2211460090462000E00CE0B6
:102CE000FEF724F84FF4FA70FFF7CCFE4FF6FF70B2
:102CF000FDF762FF00F0FEF903244CE0FFF786FCCD
:102D000038BB26488088142823DD24488088692819
:102D10001FDA2248C088B0F5C17F1ADB1F48C0887F
:102D2000B0F5C87F15DA4FF6E0704FF4C87369222A
:102D30004FF4BE7100901320FDF7F8FF4FF4FA70C6
:102D4000FFF7A0FE4FF6FF70FDF736FF00F076FAB2
:102D5000002420E0FFF75AFCE0B941F61F41322081
:102D6000FFF76AF9FEF792FC4FF6FF70FDF724FFBC
:102D700000F0C0F900F016F80AE00948007830B910
:102D80004FF6FF70FDF718FF00F016FC022400E07C
:102D9000F3E700BF00BF00BF04E7000014320020CB
:102DA00001000020F8B50220CD4981F8C8000020BC
:102DB00081F8C900012081F8CA00CA498870192029
:102DC000C7490880A1F8640048801921C448A0F8C8
:102DD00066107FE1C3488078012860D15DE0C24978
:102DE0008878FDF7CBF9FDF7BFF9132190FBF1F2DD
:102DF00001FB120000EB40000D2101EB8000B949FE
:102E00000870FDF7B1F9162190FBF1F201FB1200F9
:102E100000EB40000D2101EB8000B24948700846EC
:102E200000780D2801DC0D200870AE4840780D2890
:102E300002DC0D20AB494870AA480078D92802DB93
:102E4000D920A8490870A7484078D92802DBD920A2
:102E5000A4494870002511E0A2480078A04931F942
:102E60001510884208D19F4841789D48643030F958
:102E70001500814200D106E0681C85B2984890F8A0
:102E8000C800A842E8DC00BF954890F8C800A842F6
:102E900002D100209349887000E0A0E700BF91486C
:102EA000807878B94FF478408E4E0090767806F1AD
:102EB00009038C4E367806F109028A4E7178307813
:102EC000FDF79BFF864890F8C800401E84B20FE0D3
:102ED000601E834931F8100021F81400601E64312F
:102EE00031F810107E48643020F81410601E84B24F
:102EF000002CEDDC7A4890F8CA00012806D00228A0
:102F00000BD0032810D0042820D116E07448008884
:102F10000C3000B27249088018E0714800880C3803
:102F200000B26F49088011E06D48B0F864000C38B9
:102F300000B26B49A1F8640008E06948B0F8640089
:102F40000C3000B26649A1F8640000BF00BF002445
:102F500019E01F20624E6436009036F8146009367E
:102F6000B3B25F4E36F814600936B2B25C4E6436C6
:102F700036F81460B1B25A4E36F81460B0B2FDF7AC
:102F80003CFF601C84B2564890F8C800A042E0DCC8
:102F900000BF564800780128FBD04FF4FA70FFF7C5
:102FA00071FD4FF6FF704E4E009096F8C860761E89
:102FB0004B4F643737F816600936B3B2484E96F86F
:102FC000C860761E643F37F816600936B2B23E46D6
:102FD00096F8C860761E643737F81660B1B2404E76
:102FE00096F8C860761E643F37F81660B0B2FDF7F9
:102FF00004FF3846B0F900000D280FDB3846B0F961
:103000000000DE280ADC3846B0F964000D2805DB34
:103010003846B0F96400B0F58D7F03DD01203049FA
:1030200081F8C900032416E02D4830F914002C491A
:10303000B1F9001088420CD12948643030F91400ED
:103040002749B1F96410884203D10120244981F84D
:10305000C900601C84B2224890F8C800A042E3DC9A
:103060001F4890F8C900012802D1FFF761FD32E046
:103070001B48B0F900001B49097888422AD118483A
:10308000B0F9640017494978884223D148F23040AA
:10309000144E0090767806F10903124E367806F148
:1030A0000902104E71783078FDF7A7FE0C4890F8B1
:1030B000C800322804D10A4890F8C800322806D047
:1030C000074890F8C800401C054981F8C800012055
:1030D000044988707EE600BF002005490870F8BDED
:1030E0005C59002002000020385A00200000002017
:1030F000010000201CB54FF4FC604FF496730B22C6
:10310000002100900846FDF778FE4FF4FC600B2389
:10311000E422002100900C20FDF76FFE4FF4FC60CC
:103120004FF49673E42240F2211100900C20FDF739
:1031300064FE4FF4FC604FF49673EF220021009080
:10314000E520FDF75AFE4FF4FC6040F23F13F022F9
:10315000194600900020FDF793FD4FF6FF70002107
:1031600018234FF4A072CDE900100A210CA0FEF73D
:1031700001F84FF4FC6040F26113F0221946009010
:103180000020FDF77DFD4FF6FF7000210C2340F27B
:103190006312CDE900100A2105A0FDF7EBFF1CBD6D
:1031A000636C69636B20746F2073746172740000C8
:1031B0007374617475733A2072756E0010B50020D7
:1031C000FDF7ACFC1B49087008460078012808D1BF
:1031D000194890F8CA00042803D00320164981F842
:1031E000CA0014480078022808D1134890F8CA0091
:1031F000032803D00420104981F8CA000D48007844
:10320000032808D10C4890F8CA00012803D00220F6
:10321000094981F8CA0007480078042808D10648FF
:1032200090F8CA00022803D00120034981F8CA009F
:1032300010BD00001E3200205C5900201CB54FF666
:10324000FF70FDF7B9FC002361A214210846FDF7C9
:10325000FFFE4FF6FF7000210C231422CDE9001071
:1032600037215DA0FDF786FF00235DA22D211420EC
:10327000FDF7EEFE4FF6FF7000210C232D22CDE965
:103280000010372158A0FDF775FF002357A22D210C
:103290004120FDF7DDFE002356A22D216420FDF71D
:1032A000D7FE002355A22D218A20FDF7D1FE002351
:1032B00054A22D21BE20FDF7CBFE002353A24621B0
:1032C0001420FDF7C5FE4FF6FF7000210C234622A7
:1032D000CDE90010562144A0FDF74CFF00234EA27B
:1032E00046215F20FDF7B4FE4FF4FC606423F0221A
:1032F000194600900020FDF7C3FC47F6FF70DC2361
:1033000064228C2100901420FDF710FD44485023C6
:103310001A468C2100901420FDF7FEFE47F6FF7040
:10332000FA236422E62100901420FDF7FFFC4FF6FB
:10333000FF7000210C23EB22CDE90010192139A0E8
:10334000FDF718FF47F6FF70DC23C8228C210090A0
:103350007820FDF7EBFC324850231A468C21009070
:103360007820FDF7D9FE47F6FF70FA23C822E62140
:1033700000907820FDF7DAFC4FF6FF7000210C2357
:10338000EB22CDE900107D2128A0FDF7F3FE4FF4DC
:10339000FC6040F23F13F022194600900020FDF738
:1033A0006FFC4FF4FC604FF49673F02219460090C6
:1033B0000020FDF765FC4FF6FF7000210C234FF451
:1033C000A072CDE900100A211AA0FDF7D3FE1CBDA2
:1033D000D7E9C3FB000000003A496B756E0000009E
:1033E000D7E9D4B1000000003A000000D5C5C4A35D
:1033F00000000000CEE288D200000000B9CBB2FD90
:10340000B4EF0000CDF5E7F900000000CFEEC4BF37
:10341000C3FBB3C600000000CCB0B3D4C9DF0000CA
:103420001200002020737461727420002073657490
:10343000200000007374617475733A2066726565CC
:10344000200000001CB5002344A22D210A20FDF716
:10345000FFFD4FF6FF7000210C232D22CDE9001057
:10346000114640A0FDF786FE002340A246210A2017
:10347000FDF7EEFD4FF6FF7000210C234622CDE94B
:1034800000102D213BA0FDF775FE3B4890F8C820A9
:103490003AA13C48FFF72CF94FF6FF7000210C23AE
:1034A0004922CDE9001037213648FDF763FE00239D
:1034B00035A214210A20FDF7CBFD4FF6FF70002145
:1034C0000C231422CDE900104C212AA0FDF752FE56
:1034D000002330A214215520FDF7BAFD00205A2305
:1034E000EC2246210090AA20FDF720FC4FF6FF7049
:1034F00000210C234B22CDE90010AC2127A0FDF7C1
:1035000039FE00206423F02219460090FDF7B8FB35
:10351000244832236422AF2100904620FDF7FCFDB1
:1035200000204FF49673F02219460090FDF7A8FB97
:10353000002040F23F13F02219460090FDF7A0FB57
:103540004FF6FF7000210C2340F26312CDE900100A
:103550000A2115A0FDF70EFE1CBD0000D7E9C3FB34
:10356000000000003A496B756E000000B7D6CAFD36
:10357000000000003A0000005C5900202530326451
:10358000000000003C590020CFEEC4BFC3FBB3C60F
:1035900000000000CCB0B3D4C9DF000020656E6429
:1035A000200000001F3200207374617475733A208C
:1035B00072656164790000001CB5364864231A46C0
:1035C0001E2100904620FDF7A7FD0020A023F02239
:1035D00019460090FDF754FB00232FA2DC210A209E
:1035E000FDF736FD4FF6FF7000210C23DC22CDE9FC
:1035F000001037212AA0FDF7BDFD002040F23F1347
:10360000F02219460090FDF73BFB002040F22F13FB
:10361000F02219460090FDF733FB224890F8C820AD
:1036200021A12348FFF764F84FF6FF7000210C2317
:10363000DF22CDE9001041211D48FDF79BFD002050
:1036400040F26113F02219460090FDF719FB4FF686
:10365000FF70002118234FF4A072CDE900100A2159
:1036600014A0FDF787FD00204FF4C87369224FF4C2
:10367000BE7100901320FDF759FB4FF6FF7000213B
:103680000C2340F28112CDE9001014210CA0FDF7AB
:1036900071FD1CBD22610008B7D6CAFD0000000004
:1036A0003A0000005C590020253032640000000020
:1036B0003C5900207374617475733A20656E640020
:1036C0002072657475726E2000000000000000001A
:1036D0000000000000000000000000003F4000006B
:1036E00000000000000030004000300040000000FA
:1036F00009000BC03D000BC03D00090018C024406C
:103700007FE0224031800000180024C01B000D80A3
:103710003240018003801C4027401C80074000404D
:103720001000600000000000000000000000000029
:1037300000001F80204040200000402020401F80CB
:1037400000000000090006001F80060009000000BC
:10375000040004003F80040004000000001000602A
:103760000000000000000000040004000400040049
:103770000400000000000040000000000000000005
:10378000002001C006003800400000001F802040DB
:10379000204020401F800000000010403FC000403B
:1037A0000000000018C021402240244018400000C2
:1037B00010802040244024401B80000002000D00A7
:1037C00011003FC0014000003C80244024402440C0
:1037D000238000001F8024402440344003800000E8
:1037E0003000200027C03800200000001B8024404B
:1037F000244024401B8000001C0022C022402240A4
:103800001F800000000000000840000000000000D1
:103810000000000004600000000000000000040040
:103820000A00110020804040090009000900090039
:103830000900000000004040208011000A00040040
:103840001800200023402400180000001F802040A2
:10385000274029401F400000004007C039000F00EA
:1038600001C0004020403FC0244024401B80000095
:103870001F802040204020403080000020403FC07A
:10388000204020401F80000020403FC024402E40A8
:1038900030C0000020403FC024402E003000000017
:1038A0000F001080204022403380020020403FC0A3
:1038B000040004003FC02040204020403FC0204082
:1038C000204000000060202020203FC02000200079
:1038D00020403FC024400B0030C0204020403FC06B
:1038E00020400040004000C03FC03C0003C03C00FE
:1038F0003FC0000020403FC00C4023003FC02000DC
:103900001F802040204020401F80000020403FC0FA
:1039100024402400180000001F802140214020E0A6
:103920001FA0000020403FC02440260019C00040D6
:1039300018C0244024402240318000003000204044
:103940003FC020403000000020003F800040004089
:103950003F80200020003E0001C00700380020000A
:10396000380007C03C0007C038000000204039C0C4
:10397000060039C0204000002000384007C0384011
:1039800020000000304021C02640384020C0000008
:10399000000000007FE04020402000000000700098
:1039A0000C000380004000000000402040207FE029
:1039B0000000000000002000400020000000000087
:1039C0000010001000100010001000100000000097
:1039D000400000000000000000000280054005409B
:1039E00003C0004020003FC00440044003800000AA
:1039F00000000380044004400640000000000380F3
:103A0000044024403FC000400000038005400540C2
:103A100003400000000004401FC024402440200058
:103A2000000002E0055005500650042020403FC031
:103A30000440040003C000400000044027C00040D0
:103A40000000000000100010041027E0000000003B
:103A500020403FC00140070004C0044020402040F7
:103A60003FC000400040000007C0040007C0040041
:103A700003C00000044007C00440040003C000402D
:103A8000000003800440044003800000041007F09D
:103A900004500440038000000000038004400450F0
:103AA00007F00010044007C00240040004000000BA
:103AB000000006400540054004C00000000004006E
:103AC0001F800440004000000400078000400440C4
:103AD00007C000400400070004C001800600040085
:103AE000060001C0070001C006000000044006C037
:103AF000010006C0044000000410071004E001802B
:103B0000060004000000044005C006400440000018
:103B10000000000004007BE04020000000000000E6
:103B20000000FFF000000000000040207BE00400E7
:103B30000000000040008000400020002000400005
:103B40000000000000000000000000000000000075
:103B50000000000000001FCC000C0000000000006E
:103B60000000080030006000080030006000000025
:103B7000022003FC1E20022003FC1E200220000065
:103B800000000E1811043FFF10840C7800000000A4
:103B90000F0010840F3800C00778188400780000E8
:103BA00000780F8410C411240E9800E400840008EB
:103BB0000800680070000000000000000000000025
:103BC00000000000000007E0181820044002000078
:103BD000000040022004181807E000000000000068
:103BE0000240024001800FF00180024002400000CC
:103BF0000080008000800FF80080008000800000BE
:103C00000001000D000E0000000000000000000098
:103C10000000008000800080008000800080008024
:103C20000000000C000C000000000000000000007C
:103C30000000000600180060018006001800200047
:103C4000000007F0080810041004080807F000003E
:103C50000000080408041FFC000400040000000029
:103C600000000E0C10141024104411840E0C0000DF
:103C700000000C1810041104110412880C700000CC
:103C8000000000E00320042408241FFC002400009E
:103C900000001F9810841104110410881070000097
:103CA000000007F008881104110418880070000053
:103CB00000001C00100010FC13001C00100000008D
:103CC00000000E3811441084108411440E38000096
:103CD00000000700088C10441044088807F000001A
:103CE000000000000000030C030C000000000000B6
:103CF00000000000000101060000000000000000BC
:103D00000000008001400220041008081004000098
:103D100002200220022002200220022002200000B5
:103D20000000100408080410022001400080000078
:103D300000000E001200100C106C10800F0000002C
:103D400003E00C1813E4142417C4082807D000005B
:103D50000004003C03C41C40074000E4001C0004B5
:103D600010041FFC1104110411040E8800700000DF
:103D700003E00C1810041004100410081C100000BC
:103D800010041FFC100410041004080807F00000C1
:103D900010041FFC1104110417C4100408180000BB
:103DA00010041FFC1104110017C0100008000000CF
:103DB00003E00C181004100410441C7800400000AC
:103DC00010041FFC10840080008010841FFC10046D
:103DD0000000100410041FFC100410040000000078
:103DE00000030001100110011FFE10001000000070
:103DF00010041FFC110403801464181C100400003C
:103E000010041FFC1004000400040004000C000057
:103E100010041FFC1F0000FC1F001FFC100400000A
:103E200010041FFC0C04030000E010181FFC10001D
:103E300007F00808100410041004080807F0000038
:103E400010041FFC10841080108010800F000000F0
:103E500007F0081810241024101C080A07F20000AC
:103E600010041FFC1104110011C011300E0C0004CD
:103E700000000E1C11041084108410441C38000033
:103E80001800100010041FFC10041000180000009F
:103E900010001FF810040004000410041FF81000A4
:103EA00010001E0011E0001C007013801C001000A8
:103EB0001FC0103C00E01F0000E0103C1FC00000CD
:103EC0001004180C163401C001C01634180C10046C
:103ED00010001C00130400FC13041C001000000060
:103EE0000804101C1064108413041C041018000033
:103EF0000000000000007FFE40024002400200007F
:103F0000000030000C0003800060001C0003000073
:103F100000004002400240027FFE0000000000005E
:103F20000000000020004000400040002000000091
:103F30000001000100010001000100010001000179
:103F400000004000400020000000000000000000D1
:103F500000000098012401440144014400FC0004D5
:103F600010001FFC0088010401040088007000009C
:103F700000000070008801040104010400880000B2
:103F80000000007000880104010411081FFC0004F7
:103F9000000000F8014401440144014400C800004D
:103FA0000000010401040FFC1104110411001800A9
:103FB000000000D601290129012901C901060000DC
:103FC00010041FFC008401000100010400FC000437
:103FD00000000104190419FC0004000400000000A2
:103FE0000000000300010101190119FE000000009A
:103FF00010041FFC0024004001B4010C0104000067
:104000000000100410041FFC000400040000000065
:10401000010401FC0104010001FC0104010000FC99
:10402000010401FC008401000100010400FC000403
:10403000000000F8010401040104010400F800007C
:10404000010101FF008501040104008800700000E7
:1040500000000070008801040104010501FF000157
:104060000104010401FC008401040100018000003E
:10407000000000CC01240124012401240198000047
:1040800000000100010007F8010401040000000025
:10409000010001F8000400040004010801FC000410
:1040A000010001800170000C00100160018001001E
:1040B00001F0010C003001C00030010C01F00100E2
:1040C00000000104018C00740170018C01040000E7
:1040D000010101810171000E0018016001800100E1
:1040E00000000184010C013401440184010C000032
:1040F000000000000000000001003EFC4002400201
:104100000000000000000000FFFF000000000000B1
:104110000000400240023EFC0100000000000000E0
:10412000000060008000800040004000200020006F
:10413000000000000000000000000000000000007F
:10414000000000000000000000000000000000006F
:10415000000000000000000000000000000000005F
:104160000000000F80380FFE380F8038000000007C
:10417000000000000000000000000000000001003E
:10418000000600000C0000380000310000060000AE
:104190000C000038000030000000000000000000AB
:1041A00061800067F807F98000618000618000612C
:1041B000800061800067F807F980006180000000DE
:1041C00000000000000001C0E003E0F00630080439
:1041D00018081FFFFE040E080787F00381E00000A7
:1041E0000000000001F000060C00040408060C703A
:1041F00001F9C0000E00003BE000EC1807080804BD
:104200000C180003E00000000001E00007F003F8D4
:1042100018041C0804170807E1D003C0E00023B00D
:10422000003C080020080000100000000000000111
:1042300000003100003200001C00000000000000FF
:10424000000000000000000000000000000000006E
:10425000000000000000000000000000000000005E
:104260007F0001FFC00780F00C0018100004200040
:10427000020000000000002000021000040C0018E2
:104280000780F001FFC0007F000000000000000078
:104290000000000000000000000000004200006676
:1042A00000006600003C0000180003FFC00018007A
:1042B000003C0000660000660000420000000000B4
:1042C000080000080000080000080000080001FFC6
:1042D000C0000800000800000800000800000800F6
:1042E00000000000000100003100003200001C004E
:1042F00000000000000000000000000000000000BE
:104300000000000000000000080000080000080095
:104310000008000008000008000008000008000075
:10432000080000080000000000000000000000007D
:1043300038000038000038000000000000000000D5
:10434000000000000000000000000000000000006D
:10435000000600001C000070000180000E00003804
:104360000000C0000700001C00003000000000003A
:10437000000000007F8001FFE00380700600180449
:10438000000804000806001803807001FFE0007FA9
:10439000800000000000000000000100080100088B
:1043A00001000803FFF807FFF800000800000800FC
:1043B000000800000000000000000001C03802C03A
:1043C00058040098040118040218040418061C1864
:1043D00003F81801E0F800000000000000000001F0
:1043E000C0E003C0F0040008040808040808061828
:1043F0000803F41801E7F00001E0000000000000ED
:10440000000000000300000D00001100006100002A
:10441000810803010807FFF80FFFF80001080001F9
:10442000080000000000000000E007FCD0060808BB
:10443000061008061008061008061838060FF006C1
:1044400007C0000000000000000000003F8001FFE6
:10445000E00384300208180410080410080410084F
:10446000071810030FF00007C00000000000000054
:10447000000003C0000700000600000600F8060761
:10448000F806180006E00007000006000000000023
:1044900000000001E1E003F7F006341004180804FE
:1044A0001808040C08040C0806161803F3F001C1E0
:1044B000E000000000000000F80003FC30030638B4
:1044C0000402080402080402080404100308F001AE
:1044D000FFC0007F0000000000000000000000009E
:1044E00000000000000000007038007038007038D4
:1044F00000000000000000000000000000000000BC
:10450000000000000000000000000000301A003031
:104510001C0000000000000000000000000000007F
:10452000000000000000000800001400002200004D
:1045300041000080800100400200200400100800BB
:104540000800000000000000210000210000210000
:1045500000210000210000210000210000210000B6
:104560002100002100000000000000000000080001
:10457000080400100200200100400080800041007B
:1045800000220000140000080000000000000003EA
:10459000C00004C000040000080038080F380808F4
:1045A000380810000C300007E00003C000000000D5
:1045B000000000003F8000FFE0038070020F100643
:1045C000708804C088048308047F8802C0900301B7
:1045D0002000FE400000080000180001F8003E081E
:1045E00001C20007020007E20000FE00001FC80031
:1045F00001F800003800000804000807FFF807FF72
:10460000F80408080408080408080408080618083C
:1046100003F41801E7F00001E000000000000000D2
:104620003F8001FFE00380700200180400080400CE
:10463000080400080400100600200780C0000000E5
:1046400004000807FFF807FFF80400080400080446
:10465000000804001802001003807001FFE0007FD2
:104660008000000004000807FFF807FFF8040808AE
:10467000040808040808040808043E0804000806A2
:10468000001801006000000004000807FFF807FFA1
:10469000F8040808040800040800040800043E00A8
:1046A000060000060000018000000000000000007D
:1046B0003F8001FFE0038070060018040008040238
:1046C000080402080203F00783F000020000020061
:1046D00004000807FFF807FFF804080800080000B6
:1046E000080000080000080004080807FFF807FF9A
:1046F000F80400080000000000000400080400089E
:1047000004000807FFF807FFF80400080400080485
:10471000000800000000000000000000000600008B
:104720000700000104000104000104000307FFFE6C
:1047300007FFFC0400000400000400000400080758
:10474000FFF807FFF8040C08001800003E0004C73B
:10475000800503C80600F8040038040018000008AB
:1047600004000807FFF807FFF8040008000008002D
:104770000008000008000008000008000018000001
:104780006000000004000807FFF807800807FC002D
:10479000007FC00003F80007C0007800078008070A
:1047A000FFF807FFF804000804000807FFF80700F7
:1047B0000803C00000E000003800001E00000700F1
:1047C0000001C00400F007FFF80400000000000032
:1047D0007F8001FFE00380700600180400080400D9
:1047E0000806001803003001FFE0007F8000000091
:1047F00004000807FFF807FFF80404080404000495
:104800000400040400040400060C0003F80001F096
:1048100000000000000000007F8001FFE0038070C6
:104820000600880400880400C806003C03003E011E
:10483000FFE6007F8400000004000807FFF807FF80
:10484000F8040808040800040C00040F00040BC05E
:104850000610F003F03801E0080000080000000135
:10486000E0F803F030063010041808041808040CAF
:1048700008040C080206180207F00781E000000097
:104880000180000600000400000400000400080786
:10489000FFF807FFF8040008040000040000060009
:1048A0000001800004000007FFE007FFF00400188B
:1048B00000000800000800000800000800000804CC
:1048C000001007FFE004000004000006000007E0FD
:1048D0000007FE00041FE00001F80000380001E0BE
:1048E000043E0007C00006000004000004000007AA
:1048F000E00007FFC0041FF80007C007F80007FF2B
:1049000080043FF80007C004F8000700000400001E
:1049100000000004000806001807C07805F1C80070
:104920003E00001F800463E80780F80600180400BA
:104930000800000004000006000007800007E008EF
:10494000047C08001FF80007F800180804E00807B6
:10495000000006000004000000000001000806003E
:10496000380400F80403E8040F08047C0805F00884
:1049700007C00807001804006000000000000000E5
:1049800000000000000000000000003FFFFE2000CB
:10499000022000022000022000022000020000008D
:1049A00000000000000008000007000000C0000038
:1049B00038000006000001C000003000000E0000BA
:1049C00001000000000000000000200002200002A2
:1049D0002000022000022000023FFFFE0000000035
:1049E00000000000000000000000000000000000C7
:1049F000000800001000003000002000003000001F
:104A0000100000080000000000000000000001008D
:104A10000001000001000001000001000001000091
:104A20000100000100000100000100000100000180
:104A30000000000000000000002000002000001026
:104A40000000100000000000000000000000000056
:104A5000000000000000000000F00019F8001B1822
:104A6000002208002608002408002410003FF80057
:104A70001FF800000800001800000004000007FFF5
:104A8000F80FFFF000181800100800200800200898
:104A9000003018001FF0000FC000000000000000F0
:104AA00007C0001FF0001830002008002008002078
:104AB00008003C08001C100000600000000000001E
:104AC0000000000007C0001FF00038180020080098
:104AD000200800200804101007FFF80FFFF0000066
:104AE000100000000000000000000007C0001FF0E0
:104AF00000123000221800220800220800320800AC
:104B00001E10000E20000000000000002000002009
:104B10000800200801FFF803FFF806200804200819
:104B2000042008072000030000000000000000002F
:104B3000000E000E6E001FF30031B10020B1002006
:104B4000B1003191001F13002E1E00200E00300016
:104B500000000004000807FFF80FFFF8001008002D
:104B60002000002000002008003FF8001FF800008F
:104B700008000000000000000000002008002008DD
:104B8000002008063FF8063FF80000080000080073
:104B9000000800000000000000000000000000000D
:104BA00003000003002001002001002003063FFE57
:104BB000063FFC00000000000000000000000004B0
:104BC000000807FFF80FFFF8000188000300002F1E
:104BD000C00038F80020380020080000080000005D
:104BE000000000000000040008040008040008079A
:104BF000FFF80FFFF80000080000080000080000A0
:104C000000000000002008003FF8003FF8001008F6
:104C1000002000003FF8003FF800100800200000CE
:104C20003FF8003FF8000008000000002008003FA7
:104C3000F8003FF8001008001000002000002008D5
:104C4000003FF8001FF8000008000000000000000E
:104C500007C0000FF00018300030080020080020C6
:104C600008003008001830000FF00007C0000000F6
:104C7000000000002001003FFF003FFF0010110076
:104C80002009002008002008003038001FF0000F25
:104C9000C00000000000000007C0001FF00038182E
:104CA000002008002008002009001011001FFF004C
:104CB0003FFF000001000000002008002008002045
:104CC00008003FF8003FF80008080010080020081E
:104CD0000020000030000030000000000000000054
:104CE0000000000C78001E18003308002308002183
:104CF000080021880021980030F000386000000092
:104D000000000000200000200000200000FFF00351
:104D1000FFF80020080020080020080000300000F4
:104D200000000000000000002000003FF0007FF8BD
:104D3000000018000008000008002010003FF800E4
:104D40007FF0000010000000000000002000003094
:104D500000003C00003F800023F00000780000705D
:104D6000002380003C0000300000200000200000F4
:104D70003C00003FE00023F80000E0002700003E78
:104D800000003FE00021F80001E0003E00002000AC
:104D9000000000002008002008003838003E6800AD
:104DA00027800003C8002CF80038380020180020A5
:104DB00008000000000000002000003003003C015B
:104DC000003F830023EC000070002380003C0000C3
:104DD000200000200000000000000000000000385B
:104DE000080020380020F80023E8002F88003E0843
:104DF00000380800201800007000000000000000CB
:104E00000000000000000000000000000800001486
:104E1000001FF7FC30000620000200000000000028
:104E20000000000000000000000000000000000082
:104E30000000FFFFFF000000000000000000000075
:104E4000000000000000000000002000023000060A
:104E50001FF7FC0014000008000000000000000024
:104E600000000000000000000000001800006000CA
:104E7000004000004000002000001000000800007A
:104E80000400000400000C0000100000C6D5000063
:104E9000000000E0380000783C00003C7800003C56
:104EA00070C0001CE1E01FFFFFF0001CE3000E1CBF
:104EB000E7C0079CE78003DCEF0003DCEE0001DCC9
:104EC000FC60009CF9F07FFFFFF80000000001C0CB
:104ED0000E0001FFFF0001C00E0001C00E0001C066
:104EE0000E0001FFFE0001C00E0001C00E0001C057
:104EF0000E0001FFFE0001C00E0001C00E00000008
:104F00000000D6D00000000000070000000780006D
:104F100000070000000700000007000000070180F4
:104F20001FFFFFE01FFFFFE01E0701C01E0701C0BB
:104F30001E0701C01E0701C01E0701C01E0701C0D9
:104F40001FFFFFC01FFFFFC01E0701C01C0701801D
:104F50000007000000070000000700000007000035
:104F60000007000000070000000700000007000025
:104F70000007000000000000BFC6000000000000A5
:104F80000780003C07C001FC07803FE0078039C173
:104F9000C78001C0E78001C0F78001C0778001DED3
:104FA00077807FFE078001C0078003C3C78003E1CD
:104FB000E78003F8F78007FCE7F00FDE67F80FDC07
:104FC00007F81FC0FF801DDFE78039CC078071C064
:104FD000078061C0078001C0078001C0078001E031
:104FE000078001E0078001C0070000000000BCBC92
:104FF000000000000380300003C03C0003C03C0000
:1050000003C0380003C0380003C0386003F838F02C
:105010007FFFFFF003C0380003C0380003C0380032
:1050200003DC39C003FFFFE007E383C03FC183C057
:105030007FC1C3803BC1C78003C0EF0003C0EF0046
:1050400003C07E0003C07C0003C07C0003C0FE00E0
:105050003BC3EF803F8787F80FBF03F8077800E076
:1050600000000000C4EA0000000000C0000001F0E1
:10507000000001E0000003C000C003C001E007FF22
:10508000FFF00703C0000E03C0001E03C0003C0376
:10509000C3007303C78063FFFFC00383C0000383A3
:1050A000C0000383C0000383C0000383C060038388
:1050B000C0F07FFFFFF80003C0000003C000000342
:1050C000C0000003C0000003C0000003C0000003D4
:1050D000C0000003C00000000000D4C200000000B7
:1050E0000000000000E0070000FFFF8000F00780E4
:1050F00000F0070000F0070000F0070000F00700D4
:1051000000FFFF0000FFFF0000F0070000F00700B5
:1051100000F0070000F0070000E0070000FFFF00BC
:1051200000E0070000E0070000E0070001E00700E2
:1051300001C0070001C00700038007000780F700D7
:105140000F007F001E001F0038001C000000000040
:10515000C8D500000000000000000300030003FFAA
:10516000FF8003FFFF8003800700038007000380A8
:105170000700038007000380070003800700038007
:1051800007000380070003FFFF0003800700038080
:1051900007000380070003800700038007000380E7
:1051A000070003800700038007000380070003FF58
:1051B000FF0003800700038007000380070003004F
:1051C000000000000000D0C7000000000000000048
:1051D0000380070003FFFF800380070003800700B0
:1051E0000380070003FFFF00038007000380070020
:1051F00003FFFF0003FFFF00038707000387C000D2
:1052000003C7810003C7838007FFFFC00707800033
:105210000F0780001E0786001C078F003BFFFF80E2
:105220007007800000078000000780E0000781F021
:105230007FFFFFF80000000000000000C6DA000059
:10524000000006000000079E0000079E7FF0079EFA
:105250007FF0079FF8F03FFFF8F01F9E78F0079E61
:1052600078F0079E78F007FE7FF0079E78F0079EA3
:1052700078F0079E70F007FE70F0079E70F0079EB2
:105280007FF0079FFFF03FFFF0F0119070F003DC1C
:10529000F0F003DEE0F0078FE0F00F0FE0F00E0714
:1052A000C0F01C038FF0380F03E0201C01C0000089
:1052B0000000D3C300003FF82108210821083FF86F
:1052C0002108210821083FF8210821082108410868
:1052D00041288010B7D60040044004200820101058
:1052E000200840049FE20420042004200820082015
:1052F000102021404080CCB00100028004400920F1
:105300003098CFE6004000801FF0101011101110EF
:10531000111002600C187004B3D400800080790072
:1053200049FE4A004C0049F8480848104860788017
:1053300049000202020201FE0000C9DF1020101025
:1053400010107DFE55025604548054887C9050A065
:1053500010C014821E82E282407E0000CFEE000068
:1053600001FE0020FC4011FC110411241124112421
:10537000112411241D44E050408801040202C4BFDE
:1053800000003FF82008200820083FF820082008E7
:1053900020083FF820082008200820083FF82008AF
:1053A000B3C608801C80F08010FE1102FD0412209C
:1053B000302038A854A4512491221222102010A089
:1053C0001040D7E9100011F8210821084908F9F820
:1053D000110821084108F9F8410801081908E108F5
:1053E00047FE0000D4B100001FF0101010101FF095
:1053F00000003FF82008200821082108210802C0E9
:1054000004301808E004C3FB0200020007F0081093
:10541000142062400280010006001FF8E808080816
:10542000080808080FF80808CAB1000800087C0836
:10543000440845FE440844087C08448844484448DD
:1054400044087C08440800280010BCE4200013FC39
:105450001004400447C444444444444447C44444BE
:105460004444444447C4400440144008B9CB0000BD
:105470007EFE402040405EFC5284529452945A94E6
:105480005494509452A45430584850848302B2FD2E
:105490001FF0101010101FF0101010101FF000005F
:1054A0003FF8200820083FF8200820083FF820088F
:1054B000B4EF004020401040104007FE0040F04094
:1054C00010A010901108120414041000280047FEC8
:1054D0000000CDF500007FFC01000100010001008B
:1054E00001003FF80100010001000100010001007E
:1054F000FFFE0000E7F900400040FBFC20A0211067
:10550000220827FEF80823C8224822483A48E3C860
:10551000400800280010CEE200001FF0101010100C
:105520001FF0000000003FF801000100FFFE0280B4
:10553000044008203018C00688D2102008107EFED3
:1055400010201E3C1224122422444A948508010093
:105550003FF801000100FFFE0000D5C50100F90879
:105560000908091009207940410047FE414079208F
:10557000092009100908094451822100C4A311100F
:10558000111017FC1110FC0013F832083BF85608F4
:1055900053F8904017FC10A0111012081406D6DC26
:1055A00000003FF8210821082FE8210821083FF8D2
:1055B000200827C82448244827C8400840288010CD
:1055C000CAE6100011F82808445082207C1013FE0F
:1055D0001022FE24102010207C20442044207CA097
:1055E0004440BBDB1010FEFE10107C7C1010FEFE51
:1055F00010103FF800081FF800083FF80100488429
:10560000481287F2BBF108200820FFFE0820444022
:105610002850104828404FFE984028A048A08910E4
:10562000091052082406C8A10000FF8022FC224471
:105630003E44224422443E442228222827A8FA102D
:105640004210022802440282CAB1000800087C0805
:10565000440845FE440844087C08448844484448BB
:1056600044087C08440800280010BCE4200013FC17
:105670001004400447C444444444444447C444449C
:105680004444444447C4400440144008C9E800006E
:1056900021F0111011100110020EF40013F811087E
:1056A0001110109014A0184010A003180C06D6C3B7
:1056B0007FFC44447FFC01007FFC01001FF01010C0
:1056C0001FF010101FF010101FF01010FFFE000050
:1056D000B4D308200820082008200820082008202B
:1056E00008200850145012501288208821044204C7
:1056F0008402B5D81020102010201120112CFD3468
:10570000116413A41124113411281D22E122410235
:1057100000FE0000D6B7102010201020112011200C
:10572000FD20113C11201120112011201D20E1200D
:10573000412007FE0000D0B400007FFE400290042C
:1057400010001FF8100020003FF800080008FFC8F4
:105750000008000800500020C8EB0400020001000F
:105760000100010002800280028004400440082001
:1057700008201010201040088006B8F60100010033
:1057800002800440082010102108C1060100010019
:10579000010001000100010001000100D7D6020054
:1057A00001007FFE400280041FE0004000800100F5
:1057B000FFFE010001000100010005000200BDDA4A
:1057C00008200820FFFE0820082000007FF80208BB
:1057D0000208020802080250022002000200020031
:1057E000CFB500F83F000400082010403F800100C2
:1057F000061018087FFC0104092011102108450437
:105800000200CDB310401020202023FE4840F8882D
:10581000110423FE4092F890409000901912E1127A
:10582000420E0400C8FD000000007FFC00000000E4
:10583000000000003FF80000000000000000000031
:10584000FFFE00000000C3EB08201C20F02010A881
:1058500010A4FCA2112231203A2454245428900888
:105860001010102010C01300BAF3001000F81F0031
:10587000100010001FFE10001000100017F8140890
:1058800024082408440887F80408D6D8001000F833
:105890003F000100FFFE01001FF011101FF011106A
:1058A0001FF001003FF80100FFFE0000D0C2100011
:1058B00008047F78004022401440FF7E08480848D2
:1058C0007F4808482A484948888828881108C6F42B
:1058D000010000801FFC1004100410041FFC1000C5
:1058E0001000100017FC24042404440487FC040462
:1058F000B6AF004000407C40004001FC0044FE4444
:1059000020442044208448844484FD044504022823
:105910000410B6C10020202011FC1020002003FE3E
:10592000F002109410501110109013FE1428184417
:1059300010820302B4AE010001003FF821082108E3
:105940003FF8010001007FFC410441047FFC410459
:10595000010001000100BFDA000000003FF820084C
:1059600020082008200820082008200820082008F7
:1059700020083FF820080000D6D0010001000100F7
:1059800001003FF8210821082108210821083FF8DB
:1059900021080100010001000100BFD50200010043
:1059A0007FFE400288241010200800001FF0010034
:1059B00001000100010001007FFC0000CFD02000A9
:1059C00017FC00044104410441045FF44104438492
:1059D0004544492451144104410440144008CEC2B6
:1059E000000023F81208120883F84208420813F84E
:1059F000100027FCE4A424A424A424A42FFE000067
:105A0000CAAA000027F81408140887F844084408B4
:105A100017F811202120E9242528233021202FFEEA
:105A20000000B6C8010000803FFE222022203FFC7B
:105A30002220222023E020002FF02410422041C009
:105A40008630380ED6D8001000F83F000100FFFE67
:105A500001001FF011101FF011101FF001003FF89E
:105A60000100FFFE0000B8B4100010001FFC200071
:105A70005FF090101FF010101FF004000FF01820BE
:105A8000644003801C70E00EB4CE00804080208013
:105A900020FC010409080A4014401040E0A020A0A6
:105AA00021102110220824040802CAFD08204920E0
:105AB0002A20083EFF442A44494488A41028FE288E
:105AC00022104210642818283444C282C1E52040C4
:105AD000204038A020A041107A48A4262020FBF8BE
